{
  "_format": "hh-sol-artifact-1",
  "contractName": "ProfileImageNfts",
  "sourceName": "contracts/ProfileImageNfts.sol",
  "abi": [
    {
      "inputs": [],
      "stateMutability": "nonpayable",
      "type": "constructor"
    },
    {
      "anonymous": false,
      "inputs": [
        {
          "indexed": true,
          "internalType": "address",
          "name": "owner",
          "type": "address"
        },
        {
          "indexed": true,
          "internalType": "address",
          "name": "approved",
          "type": "address"
        },
        {
          "indexed": true,
          "internalType": "uint256",
          "name": "tokenId",
          "type": "uint256"
        }
      ],
      "name": "Approval",
      "type": "event"
    },
    {
      "anonymous": false,
      "inputs": [
        {
          "indexed": true,
          "internalType": "address",
          "name": "owner",
          "type": "address"
        },
        {
          "indexed": true,
          "internalType": "address",
          "name": "operator",
          "type": "address"
        },
        {
          "indexed": false,
          "internalType": "bool",
          "name": "approved",
          "type": "bool"
        }
      ],
      "name": "ApprovalForAll",
      "type": "event"
    },
    {
      "anonymous": false,
      "inputs": [
        {
          "indexed": true,
          "internalType": "address",
          "name": "previousOwner",
          "type": "address"
        },
        {
          "indexed": true,
          "internalType": "address",
          "name": "newOwner",
          "type": "address"
        }
      ],
      "name": "OwnershipTransferred",
      "type": "event"
    },
    {
      "anonymous": false,
      "inputs": [
        {
          "indexed": true,
          "internalType": "address",
          "name": "from",
          "type": "address"
        },
        {
          "indexed": true,
          "internalType": "address",
          "name": "to",
          "type": "address"
        },
        {
          "indexed": true,
          "internalType": "uint256",
          "name": "tokenId",
          "type": "uint256"
        }
      ],
      "name": "Transfer",
      "type": "event"
    },
    {
      "inputs": [
        {
          "internalType": "address",
          "name": "to",
          "type": "address"
        },
        {
          "internalType": "uint256",
          "name": "tokenId",
          "type": "uint256"
        }
      ],
      "name": "approve",
      "outputs": [],
      "stateMutability": "nonpayable",
      "type": "function"
    },
    {
      "inputs": [
        {
          "internalType": "address",
          "name": "owner",
          "type": "address"
        }
      ],
      "name": "balanceOf",
      "outputs": [
        {
          "internalType": "uint256",
          "name": "",
          "type": "uint256"
        }
      ],
      "stateMutability": "view",
      "type": "function"
    },
    {
      "inputs": [],
      "name": "getAllTokens",
      "outputs": [
        {
          "components": [
            {
              "internalType": "uint256",
              "name": "id",
              "type": "uint256"
            },
            {
              "internalType": "string",
              "name": "uri",
              "type": "string"
            },
            {
              "internalType": "string",
              "name": "space",
              "type": "string"
            }
          ],
          "internalType": "struct ProfileImageNfts.RenderToken[]",
          "name": "",
          "type": "tuple[]"
        }
      ],
      "stateMutability": "view",
      "type": "function"
    },
    {
      "inputs": [
        {
          "internalType": "uint256",
          "name": "tokenId",
          "type": "uint256"
        }
      ],
      "name": "getApproved",
      "outputs": [
        {
          "internalType": "address",
          "name": "",
          "type": "address"
        }
      ],
      "stateMutability": "view",
      "type": "function"
    },
    {
      "inputs": [
        {
          "internalType": "address",
          "name": "owner",
          "type": "address"
        },
        {
          "internalType": "address",
          "name": "operator",
          "type": "address"
        }
      ],
      "name": "isApprovedForAll",
      "outputs": [
        {
          "internalType": "bool",
          "name": "",
          "type": "bool"
        }
      ],
      "stateMutability": "view",
      "type": "function"
    },
    {
      "inputs": [
        {
          "internalType": "address",
          "name": "recipients",
          "type": "address"
        },
        {
          "internalType": "string",
          "name": "tokenURI",
          "type": "string"
        }
      ],
      "name": "mint",
      "outputs": [
        {
          "internalType": "uint256",
          "name": "",
          "type": "uint256"
        }
      ],
      "stateMutability": "nonpayable",
      "type": "function"
    },
    {
      "inputs": [],
      "name": "name",
      "outputs": [
        {
          "internalType": "string",
          "name": "",
          "type": "string"
        }
      ],
      "stateMutability": "view",
      "type": "function"
    },
    {
      "inputs": [],
      "name": "owner",
      "outputs": [
        {
          "internalType": "address",
          "name": "",
          "type": "address"
        }
      ],
      "stateMutability": "view",
      "type": "function"
    },
    {
      "inputs": [
        {
          "internalType": "uint256",
          "name": "tokenId",
          "type": "uint256"
        }
      ],
      "name": "ownerOf",
      "outputs": [
        {
          "internalType": "address",
          "name": "",
          "type": "address"
        }
      ],
      "stateMutability": "view",
      "type": "function"
    },
    {
      "inputs": [],
      "name": "renounceOwnership",
      "outputs": [],
      "stateMutability": "nonpayable",
      "type": "function"
    },
    {
      "inputs": [
        {
          "internalType": "address",
          "name": "from",
          "type": "address"
        },
        {
          "internalType": "address",
          "name": "to",
          "type": "address"
        },
        {
          "internalType": "uint256",
          "name": "tokenId",
          "type": "uint256"
        }
      ],
      "name": "safeTransferFrom",
      "outputs": [],
      "stateMutability": "nonpayable",
      "type": "function"
    },
    {
      "inputs": [
        {
          "internalType": "address",
          "name": "from",
          "type": "address"
        },
        {
          "internalType": "address",
          "name": "to",
          "type": "address"
        },
        {
          "internalType": "uint256",
          "name": "tokenId",
          "type": "uint256"
        },
        {
          "internalType": "bytes",
          "name": "_data",
          "type": "bytes"
        }
      ],
      "name": "safeTransferFrom",
      "outputs": [],
      "stateMutability": "nonpayable",
      "type": "function"
    },
    {
      "inputs": [
        {
          "internalType": "address",
          "name": "operator",
          "type": "address"
        },
        {
          "internalType": "bool",
          "name": "approved",
          "type": "bool"
        }
      ],
      "name": "setApprovalForAll",
      "outputs": [],
      "stateMutability": "nonpayable",
      "type": "function"
    },
    {
      "inputs": [
        {
          "internalType": "bytes4",
          "name": "interfaceId",
          "type": "bytes4"
        }
      ],
      "name": "supportsInterface",
      "outputs": [
        {
          "internalType": "bool",
          "name": "",
          "type": "bool"
        }
      ],
      "stateMutability": "view",
      "type": "function"
    },
    {
      "inputs": [],
      "name": "symbol",
      "outputs": [
        {
          "internalType": "string",
          "name": "",
          "type": "string"
        }
      ],
      "stateMutability": "view",
      "type": "function"
    },
    {
      "inputs": [
        {
          "internalType": "uint256",
          "name": "tokenId",
          "type": "uint256"
        }
      ],
      "name": "tokenURI",
      "outputs": [
        {
          "internalType": "string",
          "name": "",
          "type": "string"
        }
      ],
      "stateMutability": "view",
      "type": "function"
    },
    {
      "inputs": [
        {
          "internalType": "address",
          "name": "from",
          "type": "address"
        },
        {
          "internalType": "address",
          "name": "to",
          "type": "address"
        },
        {
          "internalType": "uint256",
          "name": "tokenId",
          "type": "uint256"
        }
      ],
      "name": "transferFrom",
      "outputs": [],
      "stateMutability": "nonpayable",
      "type": "function"
    },
    {
      "inputs": [
        {
          "internalType": "address",
          "name": "newOwner",
          "type": "address"
        }
      ],
      "name": "transferOwnership",
      "outputs": [],
      "stateMutability": "nonpayable",
      "type": "function"
    }
  ],
  "bytecode": "0x60806040523480156200001157600080fd5b506040518060400160405280601081526020017f50726f66696c65496d6167654e667473000000000000000000000000000000008152506040518060400160405280600381526020017f50494e0000000000000000000000000000000000000000000000000000000000815250816000908051906020019062000096929190620001a6565b508060019080519060200190620000af929190620001a6565b505050620000d2620000c6620000d860201b60201c565b620000e060201b60201c565b620002bb565b600033905090565b6000600760009054906101000a900473ffffffffffffffffffffffffffffffffffffffff16905081600760006101000a81548173ffffffffffffffffffffffffffffffffffffffff021916908373ffffffffffffffffffffffffffffffffffffffff1602179055508173ffffffffffffffffffffffffffffffffffffffff168173ffffffffffffffffffffffffffffffffffffffff167f8be0079c531659141344cd1fd0a4f28419497f9722a3daafe3b4186f6b6457e060405160405180910390a35050565b828054620001b49062000256565b90600052602060002090601f016020900481019282620001d8576000855562000224565b82601f10620001f357805160ff191683800117855562000224565b8280016001018555821562000224579182015b828111156200022357825182559160200191906001019062000206565b5b50905062000233919062000237565b5090565b5b808211156200025257600081600090555060010162000238565b5090565b600060028204905060018216806200026f57607f821691505b602082108114156200028657620002856200028c565b5b50919050565b7f4e487b7100000000000000000000000000000000000000000000000000000000600052602260045260246000fd5b6132b280620002cb6000396000f3fe608060405234801561001057600080fd5b50600436106101165760003560e01c8063715018a6116100a2578063b88d4fde11610071578063b88d4fde146102cd578063c87b56dd146102e9578063d0def52114610319578063e985e9c514610349578063f2fde38b1461037957610116565b8063715018a61461026b5780638da5cb5b1461027557806395d89b4114610293578063a22cb465146102b157610116565b806323b872dd116100e957806323b872dd146101b55780632a5c792a146101d157806342842e0e146101ef5780636352211e1461020b57806370a082311461023b57610116565b806301ffc9a71461011b57806306fdde031461014b578063081812fc14610169578063095ea7b314610199575b600080fd5b610135600480360381019061013091906120cd565b610395565b6040516101429190612663565b60405180910390f35b610153610477565b604051610160919061267e565b60405180910390f35b610183600480360381019061017e919061211f565b610509565b60405161019091906125da565b60405180910390f35b6101b360048036038101906101ae9190612091565b61058e565b005b6101cf60048036038101906101ca9190611f37565b6106a6565b005b6101d9610706565b6040516101e69190612641565b60405180910390f35b61020960048036038101906102049190611f37565b61086d565b005b6102256004803603810190610220919061211f565b61088d565b60405161023291906125da565b60405180910390f35b61025560048036038101906102509190611ed2565b61093f565b60405161026291906128e0565b60405180910390f35b6102736109f7565b005b61027d610a7f565b60405161028a91906125da565b60405180910390f35b61029b610aa9565b6040516102a8919061267e565b60405180910390f35b6102cb60048036038101906102c69190612001565b610b3b565b005b6102e760048036038101906102e29190611f86565b610b51565b005b61030360048036038101906102fe919061211f565b610bb3565b604051610310919061267e565b60405180910390f35b610333600480360381019061032e919061203d565b610d05565b60405161034091906128e0565b60405180910390f35b610363600480360381019061035e9190611efb565b610d3d565b6040516103709190612663565b60405180910390f35b610393600480360381019061038e9190611ed2565b610dd1565b005b60007f80ac58cd000000000000000000000000000000000000000000000000000000007bffffffffffffffffffffffffffffffffffffffffffffffffffffffff1916827bffffffffffffffffffffffffffffffffffffffffffffffffffffffff1916148061046057507f5b5e139f000000000000000000000000000000000000000000000000000000007bffffffffffffffffffffffffffffffffffffffffffffffffffffffff1916827bffffffffffffffffffffffffffffffffffffffffffffffffffffffff1916145b80610470575061046f82610ec9565b5b9050919050565b60606000805461048690612b80565b80601f01602080910402602001604051908101604052809291908181526020018280546104b290612b80565b80156104ff5780601f106104d4576101008083540402835291602001916104ff565b820191906000526020600020905b8154815290600101906020018083116104e257829003601f168201915b5050505050905090565b600061051482610f33565b610553576040517f08c379a000000000000000000000000000000000000000000000000000000000815260040161054a90612840565b60405180910390fd5b6004600083815260200190815260200160002060009054906101000a900473ffffffffffffffffffffffffffffffffffffffff169050919050565b60006105998261088d565b90508073ffffffffffffffffffffffffffffffffffffffff168373ffffffffffffffffffffffffffffffffffffffff16141561060a576040517f08c379a0000000000000000000000000000000000000000000000000000000008152600401610601906128a0565b60405180910390fd5b8073ffffffffffffffffffffffffffffffffffffffff16610629610f9f565b73ffffffffffffffffffffffffffffffffffffffff161480610658575061065781610652610f9f565b610d3d565b5b610697576040517f08c379a000000000000000000000000000000000000000000000000000000000815260040161068e90612780565b60405180910390fd5b6106a18383610fa7565b505050565b6106b76106b1610f9f565b82611060565b6106f6576040517f08c379a00000000000000000000000000000000000000000000000000000000081526004016106ed906128c0565b60405180910390fd5b61070183838361113e565b505050565b6060600061071460086113a5565b905060008167ffffffffffffffff811115610758577f4e487b7100000000000000000000000000000000000000000000000000000000600052604160045260246000fd5b60405190808252806020026020018201604052801561079157816020015b61077e611cd5565b8152602001906001900390816107765790505b50905060005b82811015610864576107a96001610f33565b156108515760006107b982610bb3565b905060405180606001604052808381526020018281526020016040518060400160405280600181526020017f2000000000000000000000000000000000000000000000000000000000000000815250815250838381518110610844577f4e487b7100000000000000000000000000000000000000000000000000000000600052603260045260246000fd5b6020026020010181905250505b808061085c90612be3565b915050610797565b50809250505090565b61088883838360405180602001604052806000815250610b51565b505050565b6000806002600084815260200190815260200160002060009054906101000a900473ffffffffffffffffffffffffffffffffffffffff169050600073ffffffffffffffffffffffffffffffffffffffff168173ffffffffffffffffffffffffffffffffffffffff161415610936576040517f08c379a000000000000000000000000000000000000000000000000000000000815260040161092d906127c0565b60405180910390fd5b80915050919050565b60008073ffffffffffffffffffffffffffffffffffffffff168273ffffffffffffffffffffffffffffffffffffffff1614156109b0576040517f08c379a00000000000000000000000000000000000000000000000000000000081526004016109a7906127a0565b60405180910390fd5b600360008373ffffffffffffffffffffffffffffffffffffffff1673ffffffffffffffffffffffffffffffffffffffff168152602001908152602001600020549050919050565b6109ff610f9f565b73ffffffffffffffffffffffffffffffffffffffff16610a1d610a7f565b73ffffffffffffffffffffffffffffffffffffffff1614610a73576040517f08c379a0000000000000000000000000000000000000000000000000000000008152600401610a6a90612860565b60405180910390fd5b610a7d60006113b3565b565b6000600760009054906101000a900473ffffffffffffffffffffffffffffffffffffffff16905090565b606060018054610ab890612b80565b80601f0160208091040260200160405190810160405280929190818152602001828054610ae490612b80565b8015610b315780601f10610b0657610100808354040283529160200191610b31565b820191906000526020600020905b815481529060010190602001808311610b1457829003601f168201915b5050505050905090565b610b4d610b46610f9f565b8383611479565b5050565b610b62610b5c610f9f565b83611060565b610ba1576040517f08c379a0000000000000000000000000000000000000000000000000000000008152600401610b98906128c0565b60405180910390fd5b610bad848484846115e6565b50505050565b6060610bbe82610f33565b610bfd576040517f08c379a0000000000000000000000000000000000000000000000000000000008152600401610bf490612820565b60405180910390fd5b6000600660008481526020019081526020016000208054610c1d90612b80565b80601f0160208091040260200160405190810160405280929190818152602001828054610c4990612b80565b8015610c965780601f10610c6b57610100808354040283529160200191610c96565b820191906000526020600020905b815481529060010190602001808311610c7957829003601f168201915b505050505090506000610ca7611642565b9050600081511415610cbd578192505050610d00565b600082511115610cf2578082604051602001610cda9291906125b6565b60405160208183030381529060405292505050610d00565b610cfb84611659565b925050505b919050565b6000610d116008611700565b6000610d1d60086113a5565b9050610d298482611716565b610d3381846118f0565b8091505092915050565b6000600560008473ffffffffffffffffffffffffffffffffffffffff1673ffffffffffffffffffffffffffffffffffffffff16815260200190815260200160002060008373ffffffffffffffffffffffffffffffffffffffff1673ffffffffffffffffffffffffffffffffffffffff16815260200190815260200160002060009054906101000a900460ff16905092915050565b610dd9610f9f565b73ffffffffffffffffffffffffffffffffffffffff16610df7610a7f565b73ffffffffffffffffffffffffffffffffffffffff1614610e4d576040517f08c379a0000000000000000000000000000000000000000000000000000000008152600401610e4490612860565b60405180910390fd5b600073ffffffffffffffffffffffffffffffffffffffff168173ffffffffffffffffffffffffffffffffffffffff161415610ebd576040517f08c379a0000000000000000000000000000000000000000000000000000000008152600401610eb4906126c0565b60405180910390fd5b610ec6816113b3565b50565b60007f01ffc9a7000000000000000000000000000000000000000000000000000000007bffffffffffffffffffffffffffffffffffffffffffffffffffffffff1916827bffffffffffffffffffffffffffffffffffffffffffffffffffffffff1916149050919050565b60008073ffffffffffffffffffffffffffffffffffffffff166002600084815260200190815260200160002060009054906101000a900473ffffffffffffffffffffffffffffffffffffffff1673ffffffffffffffffffffffffffffffffffffffff1614159050919050565b600033905090565b816004600083815260200190815260200160002060006101000a81548173ffffffffffffffffffffffffffffffffffffffff021916908373ffffffffffffffffffffffffffffffffffffffff160217905550808273ffffffffffffffffffffffffffffffffffffffff1661101a8361088d565b73ffffffffffffffffffffffffffffffffffffffff167f8c5be1e5ebec7d5bd14f71427d1e84f3dd0314c0f7b2291e5b200ac8c7c3b92560405160405180910390a45050565b600061106b82610f33565b6110aa576040517f08c379a00000000000000000000000000000000000000000000000000000000081526004016110a190612760565b60405180910390fd5b60006110b58361088d565b90508073ffffffffffffffffffffffffffffffffffffffff168473ffffffffffffffffffffffffffffffffffffffff16148061112457508373ffffffffffffffffffffffffffffffffffffffff1661110c84610509565b73ffffffffffffffffffffffffffffffffffffffff16145b8061113557506111348185610d3d565b5b91505092915050565b8273ffffffffffffffffffffffffffffffffffffffff1661115e8261088d565b73ffffffffffffffffffffffffffffffffffffffff16146111b4576040517f08c379a00000000000000000000000000000000000000000000000000000000081526004016111ab906126e0565b60405180910390fd5b600073ffffffffffffffffffffffffffffffffffffffff168273ffffffffffffffffffffffffffffffffffffffff161415611224576040517f08c379a000000000000000000000000000000000000000000000000000000000815260040161121b90612720565b60405180910390fd5b61122f838383611964565b61123a600082610fa7565b6001600360008573ffffffffffffffffffffffffffffffffffffffff1673ffffffffffffffffffffffffffffffffffffffff168152602001908152602001600020600082825461128a9190612a96565b925050819055506001600360008473ffffffffffffffffffffffffffffffffffffffff1673ffffffffffffffffffffffffffffffffffffffff16815260200190815260200160002060008282546112e19190612a0f565b92505081905550816002600083815260200190815260200160002060006101000a81548173ffffffffffffffffffffffffffffffffffffffff021916908373ffffffffffffffffffffffffffffffffffffffff160217905550808273ffffffffffffffffffffffffffffffffffffffff168473ffffffffffffffffffffffffffffffffffffffff167fddf252ad1be2c89b69c2b068fc378daa952ba7f163c4a11628f55a4df523b3ef60405160405180910390a46113a0838383611969565b505050565b600081600001549050919050565b6000600760009054906101000a900473ffffffffffffffffffffffffffffffffffffffff16905081600760006101000a81548173ffffffffffffffffffffffffffffffffffffffff021916908373ffffffffffffffffffffffffffffffffffffffff1602179055508173ffffffffffffffffffffffffffffffffffffffff168173ffffffffffffffffffffffffffffffffffffffff167f8be0079c531659141344cd1fd0a4f28419497f9722a3daafe3b4186f6b6457e060405160405180910390a35050565b8173ffffffffffffffffffffffffffffffffffffffff168373ffffffffffffffffffffffffffffffffffffffff1614156114e8576040517f08c379a00000000000000000000000000000000000000000000000000000000081526004016114df90612740565b60405180910390fd5b80600560008573ffffffffffffffffffffffffffffffffffffffff1673ffffffffffffffffffffffffffffffffffffffff16815260200190815260200160002060008473ffffffffffffffffffffffffffffffffffffffff1673ffffffffffffffffffffffffffffffffffffffff16815260200190815260200160002060006101000a81548160ff0219169083151502179055508173ffffffffffffffffffffffffffffffffffffffff168373ffffffffffffffffffffffffffffffffffffffff167f17307eab39ab6107e8899845ad3d59bd9653f200f220920489ca2b5937696c31836040516115d99190612663565b60405180910390a3505050565b6115f184848461113e565b6115fd8484848461196e565b61163c576040517f08c379a0000000000000000000000000000000000000000000000000000000008152600401611633906126a0565b60405180910390fd5b50505050565b606060405180602001604052806000815250905090565b606061166482610f33565b6116a3576040517f08c379a000000000000000000000000000000000000000000000000000000000815260040161169a90612880565b60405180910390fd5b60006116ad611642565b905060008151116116cd57604051806020016040528060008152506116f8565b806116d784611b05565b6040516020016116e89291906125b6565b6040516020818303038152906040525b915050919050565b6001816000016000828254019250508190555050565b600073ffffffffffffffffffffffffffffffffffffffff168273ffffffffffffffffffffffffffffffffffffffff161415611786576040517f08c379a000000000000000000000000000000000000000000000000000000000815260040161177d90612800565b60405180910390fd5b61178f81610f33565b156117cf576040517f08c379a00000000000000000000000000000000000000000000000000000000081526004016117c690612700565b60405180910390fd5b6117db60008383611964565b6001600360008473ffffffffffffffffffffffffffffffffffffffff1673ffffffffffffffffffffffffffffffffffffffff168152602001908152602001600020600082825461182b9190612a0f565b92505081905550816002600083815260200190815260200160002060006101000a81548173ffffffffffffffffffffffffffffffffffffffff021916908373ffffffffffffffffffffffffffffffffffffffff160217905550808273ffffffffffffffffffffffffffffffffffffffff16600073ffffffffffffffffffffffffffffffffffffffff167fddf252ad1be2c89b69c2b068fc378daa952ba7f163c4a11628f55a4df523b3ef60405160405180910390a46118ec60008383611969565b5050565b6118f982610f33565b611938576040517f08c379a000000000000000000000000000000000000000000000000000000000815260040161192f906127e0565b60405180910390fd5b8060066000848152602001908152602001600020908051906020019061195f929190611cf6565b505050565b505050565b505050565b600061198f8473ffffffffffffffffffffffffffffffffffffffff16611cb2565b15611af8578373ffffffffffffffffffffffffffffffffffffffff1663150b7a026119b8610f9f565b8786866040518563ffffffff1660e01b81526004016119da94939291906125f5565b602060405180830381600087803b1580156119f457600080fd5b505af1925050508015611a2557506040513d601f19601f82011682018060405250810190611a2291906120f6565b60015b611aa8573d8060008114611a55576040519150601f19603f3d011682016040523d82523d6000602084013e611a5a565b606091505b50600081511415611aa0576040517f08c379a0000000000000000000000000000000000000000000000000000000008152600401611a97906126a0565b60405180910390fd5b805181602001fd5b63150b7a0260e01b7bffffffffffffffffffffffffffffffffffffffffffffffffffffffff1916817bffffffffffffffffffffffffffffffffffffffffffffffffffffffff191614915050611afd565b600190505b949350505050565b60606000821415611b4d576040518060400160405280600181526020017f30000000000000000000000000000000000000000000000000000000000000008152509050611cad565b600082905060005b60008214611b7f578080611b6890612be3565b915050600a82611b789190612a65565b9150611b55565b60008167ffffffffffffffff811115611bc1577f4e487b7100000000000000000000000000000000000000000000000000000000600052604160045260246000fd5b6040519080825280601f01601f191660200182016040528015611bf35781602001600182028036833780820191505090505b5090505b60008514611ca657600182611c0c9190612a96565b9150600a85611c1b9190612c2c565b6030611c279190612a0f565b60f81b818381518110611c63577f4e487b7100000000000000000000000000000000000000000000000000000000600052603260045260246000fd5b60200101907effffffffffffffffffffffffffffffffffffffffffffffffffffffffffffff1916908160001a905350600a85611c9f9190612a65565b9450611bf7565b8093505050505b919050565b6000808273ffffffffffffffffffffffffffffffffffffffff163b119050919050565b60405180606001604052806000815260200160608152602001606081525090565b828054611d0290612b80565b90600052602060002090601f016020900481019282611d245760008555611d6b565b82601f10611d3d57805160ff1916838001178555611d6b565b82800160010185558215611d6b579182015b82811115611d6a578251825591602001919060010190611d4f565b5b509050611d789190611d7c565b5090565b5b80821115611d95576000816000905550600101611d7d565b5090565b6000611dac611da784612920565b6128fb565b905082815260208101848484011115611dc457600080fd5b611dcf848285612b3e565b509392505050565b6000611dea611de584612951565b6128fb565b905082815260208101848484011115611e0257600080fd5b611e0d848285612b3e565b509392505050565b600081359050611e2481613220565b92915050565b600081359050611e3981613237565b92915050565b600081359050611e4e8161324e565b92915050565b600081519050611e638161324e565b92915050565b600082601f830112611e7a57600080fd5b8135611e8a848260208601611d99565b91505092915050565b600082601f830112611ea457600080fd5b8135611eb4848260208601611dd7565b91505092915050565b600081359050611ecc81613265565b92915050565b600060208284031215611ee457600080fd5b6000611ef284828501611e15565b91505092915050565b60008060408385031215611f0e57600080fd5b6000611f1c85828601611e15565b9250506020611f2d85828601611e15565b9150509250929050565b600080600060608486031215611f4c57600080fd5b6000611f5a86828701611e15565b9350506020611f6b86828701611e15565b9250506040611f7c86828701611ebd565b9150509250925092565b60008060008060808587031215611f9c57600080fd5b6000611faa87828801611e15565b9450506020611fbb87828801611e15565b9350506040611fcc87828801611ebd565b925050606085013567ffffffffffffffff811115611fe957600080fd5b611ff587828801611e69565b91505092959194509250565b6000806040838503121561201457600080fd5b600061202285828601611e15565b925050602061203385828601611e2a565b9150509250929050565b6000806040838503121561205057600080fd5b600061205e85828601611e15565b925050602083013567ffffffffffffffff81111561207b57600080fd5b61208785828601611e93565b9150509250929050565b600080604083850312156120a457600080fd5b60006120b285828601611e15565b92505060206120c385828601611ebd565b9150509250929050565b6000602082840312156120df57600080fd5b60006120ed84828501611e3f565b91505092915050565b60006020828403121561210857600080fd5b600061211684828501611e54565b91505092915050565b60006020828403121561213157600080fd5b600061213f84828501611ebd565b91505092915050565b60006121548383612541565b905092915050565b61216581612aca565b82525050565b600061217682612992565b61218081856129c0565b93508360208202850161219285612982565b8060005b858110156121ce57848403895281516121af8582612148565b94506121ba836129b3565b925060208a01995050600181019050612196565b50829750879550505050505092915050565b6121e981612adc565b82525050565b60006121fa8261299d565b61220481856129d1565b9350612214818560208601612b4d565b61221d81612d19565b840191505092915050565b6000612233826129a8565b61223d81856129e2565b935061224d818560208601612b4d565b61225681612d19565b840191505092915050565b600061226c826129a8565b61227681856129f3565b9350612286818560208601612b4d565b61228f81612d19565b840191505092915050565b60006122a5826129a8565b6122af8185612a04565b93506122bf818560208601612b4d565b80840191505092915050565b60006122d86032836129f3565b91506122e382612d2a565b604082019050919050565b60006122fb6026836129f3565b915061230682612d79565b604082019050919050565b600061231e6025836129f3565b915061232982612dc8565b604082019050919050565b6000612341601c836129f3565b915061234c82612e17565b602082019050919050565b60006123646024836129f3565b915061236f82612e40565b604082019050919050565b60006123876019836129f3565b915061239282612e8f565b602082019050919050565b60006123aa602c836129f3565b91506123b582612eb8565b604082019050919050565b60006123cd6038836129f3565b91506123d882612f07565b604082019050919050565b60006123f0602a836129f3565b91506123fb82612f56565b604082019050919050565b60006124136029836129f3565b915061241e82612fa5565b604082019050919050565b6000612436602e836129f3565b915061244182612ff4565b604082019050919050565b60006124596020836129f3565b915061246482613043565b602082019050919050565b600061247c6031836129f3565b91506124878261306c565b604082019050919050565b600061249f602c836129f3565b91506124aa826130bb565b604082019050919050565b60006124c26020836129f3565b91506124cd8261310a565b602082019050919050565b60006124e5602f836129f3565b91506124f082613133565b604082019050919050565b60006125086021836129f3565b915061251382613182565b604082019050919050565b600061252b6031836129f3565b9150612536826131d1565b604082019050919050565b60006060830160008301516125596000860182612598565b50602083015184820360208601526125718282612228565b9150506040830151848203604086015261258b8282612228565b9150508091505092915050565b6125a181612b34565b82525050565b6125b081612b34565b82525050565b60006125c2828561229a565b91506125ce828461229a565b91508190509392505050565b60006020820190506125ef600083018461215c565b92915050565b600060808201905061260a600083018761215c565b612617602083018661215c565b61262460408301856125a7565b818103606083015261263681846121ef565b905095945050505050565b6000602082019050818103600083015261265b818461216b565b905092915050565b600060208201905061267860008301846121e0565b92915050565b600060208201905081810360008301526126988184612261565b905092915050565b600060208201905081810360008301526126b9816122cb565b9050919050565b600060208201905081810360008301526126d9816122ee565b9050919050565b600060208201905081810360008301526126f981612311565b9050919050565b6000602082019050818103600083015261271981612334565b9050919050565b6000602082019050818103600083015261273981612357565b9050919050565b600060208201905081810360008301526127598161237a565b9050919050565b600060208201905081810360008301526127798161239d565b9050919050565b60006020820190508181036000830152612799816123c0565b9050919050565b600060208201905081810360008301526127b9816123e3565b9050919050565b600060208201905081810360008301526127d981612406565b9050919050565b600060208201905081810360008301526127f981612429565b9050919050565b600060208201905081810360008301526128198161244c565b9050919050565b600060208201905081810360008301526128398161246f565b9050919050565b6000602082019050818103600083015261285981612492565b9050919050565b60006020820190508181036000830152612879816124b5565b9050919050565b60006020820190508181036000830152612899816124d8565b9050919050565b600060208201905081810360008301526128b9816124fb565b9050919050565b600060208201905081810360008301526128d98161251e565b9050919050565b60006020820190506128f560008301846125a7565b92915050565b6000612905612916565b90506129118282612bb2565b919050565b6000604051905090565b600067ffffffffffffffff82111561293b5761293a612cea565b5b61294482612d19565b9050602081019050919050565b600067ffffffffffffffff82111561296c5761296b612cea565b5b61297582612d19565b9050602081019050919050565b6000819050602082019050919050565b600081519050919050565b600081519050919050565b600081519050919050565b6000602082019050919050565b600082825260208201905092915050565b600082825260208201905092915050565b600082825260208201905092915050565b600082825260208201905092915050565b600081905092915050565b6000612a1a82612b34565b9150612a2583612b34565b9250827fffffffffffffffffffffffffffffffffffffffffffffffffffffffffffffffff03821115612a5a57612a59612c5d565b5b828201905092915050565b6000612a7082612b34565b9150612a7b83612b34565b925082612a8b57612a8a612c8c565b5b828204905092915050565b6000612aa182612b34565b9150612aac83612b34565b925082821015612abf57612abe612c5d565b5b828203905092915050565b6000612ad582612b14565b9050919050565b60008115159050919050565b60007fffffffff0000000000000000000000000000000000000000000000000000000082169050919050565b600073ffffffffffffffffffffffffffffffffffffffff82169050919050565b6000819050919050565b82818337600083830152505050565b60005b83811015612b6b578082015181840152602081019050612b50565b83811115612b7a576000848401525b50505050565b60006002820490506001821680612b9857607f821691505b60208210811415612bac57612bab612cbb565b5b50919050565b612bbb82612d19565b810181811067ffffffffffffffff82111715612bda57612bd9612cea565b5b80604052505050565b6000612bee82612b34565b91507fffffffffffffffffffffffffffffffffffffffffffffffffffffffffffffffff821415612c2157612c20612c5d565b5b600182019050919050565b6000612c3782612b34565b9150612c4283612b34565b925082612c5257612c51612c8c565b5b828206905092915050565b7f4e487b7100000000000000000000000000000000000000000000000000000000600052601160045260246000fd5b7f4e487b7100000000000000000000000000000000000000000000000000000000600052601260045260246000fd5b7f4e487b7100000000000000000000000000000000000000000000000000000000600052602260045260246000fd5b7f4e487b7100000000000000000000000000000000000000000000000000000000600052604160045260246000fd5b6000601f19601f8301169050919050565b7f4552433732313a207472616e7366657220746f206e6f6e20455243373231526560008201527f63656976657220696d706c656d656e7465720000000000000000000000000000602082015250565b7f4f776e61626c653a206e6577206f776e657220697320746865207a65726f206160008201527f6464726573730000000000000000000000000000000000000000000000000000602082015250565b7f4552433732313a207472616e736665722066726f6d20696e636f72726563742060008201527f6f776e6572000000000000000000000000000000000000000000000000000000602082015250565b7f4552433732313a20746f6b656e20616c7265616479206d696e74656400000000600082015250565b7f4552433732313a207472616e7366657220746f20746865207a65726f2061646460008201527f7265737300000000000000000000000000000000000000000000000000000000602082015250565b7f4552433732313a20617070726f766520746f2063616c6c657200000000000000600082015250565b7f4552433732313a206f70657261746f7220717565727920666f72206e6f6e657860008201527f697374656e7420746f6b656e0000000000000000000000000000000000000000602082015250565b7f4552433732313a20617070726f76652063616c6c6572206973206e6f74206f7760008201527f6e6572206e6f7220617070726f76656420666f7220616c6c0000000000000000602082015250565b7f4552433732313a2062616c616e636520717565727920666f7220746865207a6560008201527f726f206164647265737300000000000000000000000000000000000000000000602082015250565b7f4552433732313a206f776e657220717565727920666f72206e6f6e657869737460008201527f656e7420746f6b656e0000000000000000000000000000000000000000000000602082015250565b7f45524337323155524953746f726167653a2055524920736574206f66206e6f6e60008201527f6578697374656e7420746f6b656e000000000000000000000000000000000000602082015250565b7f4552433732313a206d696e7420746f20746865207a65726f2061646472657373600082015250565b7f45524337323155524953746f726167653a2055524920717565727920666f722060008201527f6e6f6e6578697374656e7420746f6b656e000000000000000000000000000000602082015250565b7f4552433732313a20617070726f76656420717565727920666f72206e6f6e657860008201527f697374656e7420746f6b656e0000000000000000000000000000000000000000602082015250565b7f4f776e61626c653a2063616c6c6572206973206e6f7420746865206f776e6572600082015250565b7f4552433732314d657461646174613a2055524920717565727920666f72206e6f60008201527f6e6578697374656e7420746f6b656e0000000000000000000000000000000000602082015250565b7f4552433732313a20617070726f76616c20746f2063757272656e74206f776e6560008201527f7200000000000000000000000000000000000000000000000000000000000000602082015250565b7f4552433732313a207472616e736665722063616c6c6572206973206e6f74206f60008201527f776e6572206e6f7220617070726f766564000000000000000000000000000000602082015250565b61322981612aca565b811461323457600080fd5b50565b61324081612adc565b811461324b57600080fd5b50565b61325781612ae8565b811461326257600080fd5b50565b61326e81612b34565b811461327957600080fd5b5056fea2646970667358221220b3a7fbfe466c12d43dc806ffdfa1c03f5614e7170646165ff91b8d9bda644aa364736f6c63430008040033",
  "linkReferences": {},
  "deployedLinkReferences": {}
}